{
  "_format": "hh-sol-artifact-1",
  "contractName": "Monopoly",
  "sourceName": "contracts/Monopoly.sol",
  "abi": [
    {
      "inputs": [
        {
          "internalType": "uint64",
          "name": "subscriptionId",
          "type": "uint64"
        },
        {
          "internalType": "address",
          "name": "vrfCoordinator",
          "type": "address"
        },
        {
          "internalType": "bytes32",
          "name": "keyHash",
          "type": "bytes32"
        },
        {
          "internalType": "address",
          "name": "prizes",
          "type": "address"
        }
      ],
      "stateMutability": "nonpayable",
      "type": "constructor"
    },
    {
      "inputs": [
        {
          "internalType": "address",
          "name": "have",
          "type": "address"
        },
        {
          "internalType": "address",
          "name": "want",
          "type": "address"
        }
      ],
      "name": "OnlyCoordinatorCanFulfill",
      "type": "error"
    },
    {
      "anonymous": false,
      "inputs": [
        {
          "indexed": true,
          "internalType": "address",
          "name": "owner",
          "type": "address"
        },
        {
          "indexed": true,
          "internalType": "address",
          "name": "approved",
          "type": "address"
        },
        {
          "indexed": true,
          "internalType": "uint256",
          "name": "tokenId",
          "type": "uint256"
        }
      ],
      "name": "Approval",
      "type": "event"
    },
    {
      "anonymous": false,
      "inputs": [
        {
          "indexed": true,
          "internalType": "address",
          "name": "owner",
          "type": "address"
        },
        {
          "indexed": true,
          "internalType": "address",
          "name": "operator",
          "type": "address"
        },
        {
          "indexed": false,
          "internalType": "bool",
          "name": "approved",
          "type": "bool"
        }
      ],
      "name": "ApprovalForAll",
      "type": "event"
    },
    {
      "anonymous": false,
      "inputs": [
        {
          "indexed": false,
          "internalType": "uint256",
          "name": "requestId",
          "type": "uint256"
        },
        {
          "indexed": false,
          "internalType": "uint256",
          "name": "randomWord",
          "type": "uint256"
        },
        {
          "indexed": true,
          "internalType": "address",
          "name": "account",
          "type": "address"
        },
        {
          "indexed": false,
          "internalType": "uint256",
          "name": "tokenId",
          "type": "uint256"
        }
      ],
      "name": "RequestFulfilled",
      "type": "event"
    },
    {
      "anonymous": false,
      "inputs": [
        {
          "indexed": false,
          "internalType": "uint256",
          "name": "requestId",
          "type": "uint256"
        },
        {
          "indexed": false,
          "internalType": "uint32",
          "name": "numWords",
          "type": "uint32"
        },
        {
          "indexed": true,
          "internalType": "address",
          "name": "account",
          "type": "address"
        },
        {
          "indexed": false,
          "internalType": "uint256",
          "name": "tokenId",
          "type": "uint256"
        }
      ],
      "name": "RequestSent",
      "type": "event"
    },
    {
      "anonymous": false,
      "inputs": [
        {
          "indexed": true,
          "internalType": "bytes32",
          "name": "role",
          "type": "bytes32"
        },
        {
          "indexed": true,
          "internalType": "bytes32",
          "name": "previousAdminRole",
          "type": "bytes32"
        },
        {
          "indexed": true,
          "internalType": "bytes32",
          "name": "newAdminRole",
          "type": "bytes32"
        }
      ],
      "name": "RoleAdminChanged",
      "type": "event"
    },
    {
      "anonymous": false,
      "inputs": [
        {
          "indexed": true,
          "internalType": "bytes32",
          "name": "role",
          "type": "bytes32"
        },
        {
          "indexed": true,
          "internalType": "address",
          "name": "account",
          "type": "address"
        },
        {
          "indexed": true,
          "internalType": "address",
          "name": "sender",
          "type": "address"
        }
      ],
      "name": "RoleGranted",
      "type": "event"
    },
    {
      "anonymous": false,
      "inputs": [
        {
          "indexed": true,
          "internalType": "bytes32",
          "name": "role",
          "type": "bytes32"
        },
        {
          "indexed": true,
          "internalType": "address",
          "name": "account",
          "type": "address"
        },
        {
          "indexed": true,
          "internalType": "address",
          "name": "sender",
          "type": "address"
        }
      ],
      "name": "RoleRevoked",
      "type": "event"
    },
    {
      "anonymous": false,
      "inputs": [
        {
          "indexed": true,
          "internalType": "address",
          "name": "from",
          "type": "address"
        },
        {
          "indexed": true,
          "internalType": "address",
          "name": "to",
          "type": "address"
        },
        {
          "indexed": true,
          "internalType": "uint256",
          "name": "tokenId",
          "type": "uint256"
        }
      ],
      "name": "Transfer",
      "type": "event"
    },
    {
      "inputs": [],
      "name": "COORDINATOR",
      "outputs": [
        {
          "internalType": "contract VRFCoordinatorV2Interface",
          "name": "",
          "type": "address"
        }
      ],
      "stateMutability": "view",
      "type": "function"
    },
    {
      "inputs": [],
      "name": "DEFAULT_ADMIN_ROLE",
      "outputs": [
        {
          "internalType": "bytes32",
          "name": "",
          "type": "bytes32"
        }
      ],
      "stateMutability": "view",
      "type": "function"
    },
    {
      "inputs": [],
      "name": "MANAGER_ROLE",
      "outputs": [
        {
          "internalType": "bytes32",
          "name": "",
          "type": "bytes32"
        }
      ],
      "stateMutability": "view",
      "type": "function"
    },
    {
      "inputs": [],
      "name": "PRIZES",
      "outputs": [
        {
          "internalType": "contract Prizes",
          "name": "",
          "type": "address"
        }
      ],
      "stateMutability": "view",
      "type": "function"
    },
    {
      "inputs": [
        {
          "internalType": "address",
          "name": "",
          "type": "address"
        },
        {
          "internalType": "string",
          "name": "",
          "type": "string"
        }
      ],
      "name": "accountToPropertyCount",
      "outputs": [
        {
          "internalType": "uint256",
          "name": "",
          "type": "uint256"
        }
      ],
      "stateMutability": "view",
      "type": "function"
    },
    {
      "inputs": [
        {
          "internalType": "address",
          "name": "to",
          "type": "address"
        },
        {
          "internalType": "uint256",
          "name": "tokenId",
          "type": "uint256"
        }
      ],
      "name": "approve",
      "outputs": [],
      "stateMutability": "nonpayable",
      "type": "function"
    },
    {
      "inputs": [
        {
          "internalType": "address",
          "name": "owner",
          "type": "address"
        }
      ],
      "name": "balanceOf",
      "outputs": [
        {
          "internalType": "uint256",
          "name": "",
          "type": "uint256"
        }
      ],
      "stateMutability": "view",
      "type": "function"
    },
    {
      "inputs": [
        {
          "internalType": "address",
          "name": "account_",
          "type": "address"
        }
      ],
      "name": "claimBrownSet",
      "outputs": [],
      "stateMutability": "nonpayable",
      "type": "function"
    },
    {
      "inputs": [
        {
          "internalType": "uint256",
          "name": "tokenId",
          "type": "uint256"
        }
      ],
      "name": "getApproved",
      "outputs": [
        {
          "internalType": "address",
          "name": "",
          "type": "address"
        }
      ],
      "stateMutability": "view",
      "type": "function"
    },
    {
      "inputs": [
        {
          "internalType": "uint256",
          "name": "_requestId",
          "type": "uint256"
        }
      ],
      "name": "getRequestStatus",
      "outputs": [
        {
          "internalType": "bool",
          "name": "fulfilled",
          "type": "bool"
        },
        {
          "internalType": "uint256",
          "name": "randomWord",
          "type": "uint256"
        }
      ],
      "stateMutability": "view",
      "type": "function"
    },
    {
      "inputs": [
        {
          "internalType": "bytes32",
          "name": "role",
          "type": "bytes32"
        }
      ],
      "name": "getRoleAdmin",
      "outputs": [
        {
          "internalType": "bytes32",
          "name": "",
          "type": "bytes32"
        }
      ],
      "stateMutability": "view",
      "type": "function"
    },
    {
      "inputs": [
        {
          "internalType": "bytes32",
          "name": "role",
          "type": "bytes32"
        },
        {
          "internalType": "address",
          "name": "account",
          "type": "address"
        }
      ],
      "name": "grantRole",
      "outputs": [],
      "stateMutability": "nonpayable",
      "type": "function"
    },
    {
      "inputs": [
        {
          "internalType": "bytes32",
          "name": "role",
          "type": "bytes32"
        },
        {
          "internalType": "address",
          "name": "account",
          "type": "address"
        }
      ],
      "name": "hasRole",
      "outputs": [
        {
          "internalType": "bool",
          "name": "",
          "type": "bool"
        }
      ],
      "stateMutability": "view",
      "type": "function"
    },
    {
      "inputs": [
        {
          "internalType": "address",
          "name": "owner",
          "type": "address"
        },
        {
          "internalType": "address",
          "name": "operator",
          "type": "address"
        }
      ],
      "name": "isApprovedForAll",
      "outputs": [
        {
          "internalType": "bool",
          "name": "",
          "type": "bool"
        }
      ],
      "stateMutability": "view",
      "type": "function"
    },
    {
      "inputs": [],
      "name": "lastRequestId",
      "outputs": [
        {
          "internalType": "uint256",
          "name": "",
          "type": "uint256"
        }
      ],
      "stateMutability": "view",
      "type": "function"
    },
    {
      "inputs": [],
      "name": "name",
      "outputs": [
        {
          "internalType": "string",
          "name": "",
          "type": "string"
        }
      ],
      "stateMutability": "view",
      "type": "function"
    },
    {
      "inputs": [
        {
          "internalType": "uint256",
          "name": "tokenId",
          "type": "uint256"
        }
      ],
      "name": "ownerOf",
      "outputs": [
        {
          "internalType": "address",
          "name": "",
          "type": "address"
        }
      ],
      "stateMutability": "view",
      "type": "function"
    },
    {
      "inputs": [
        {
          "internalType": "uint256",
          "name": "requestId",
          "type": "uint256"
        },
        {
          "internalType": "uint256[]",
          "name": "randomWords",
          "type": "uint256[]"
        }
      ],
      "name": "rawFulfillRandomWords",
      "outputs": [],
      "stateMutability": "nonpayable",
      "type": "function"
    },
    {
      "inputs": [
        {
          "internalType": "bytes32",
          "name": "role",
          "type": "bytes32"
        },
        {
          "internalType": "address",
          "name": "account",
          "type": "address"
        }
      ],
      "name": "renounceRole",
      "outputs": [],
      "stateMutability": "nonpayable",
      "type": "function"
    },
    {
      "inputs": [
        {
          "internalType": "uint256",
          "name": "",
          "type": "uint256"
        }
      ],
      "name": "requestIds",
      "outputs": [
        {
          "internalType": "uint256",
          "name": "",
          "type": "uint256"
        }
      ],
      "stateMutability": "view",
      "type": "function"
    },
    {
      "inputs": [
        {
          "internalType": "address",
          "name": "account_",
          "type": "address"
        }
      ],
      "name": "requestRandomWords",
      "outputs": [
        {
          "internalType": "uint256",
          "name": "",
          "type": "uint256"
        }
      ],
      "stateMutability": "nonpayable",
      "type": "function"
    },
    {
      "inputs": [
        {
          "internalType": "bytes32",
          "name": "role",
          "type": "bytes32"
        },
        {
          "internalType": "address",
          "name": "account",
          "type": "address"
        }
      ],
      "name": "revokeRole",
      "outputs": [],
      "stateMutability": "nonpayable",
      "type": "function"
    },
    {
      "inputs": [],
      "name": "s_keyHash",
      "outputs": [
        {
          "internalType": "bytes32",
          "name": "",
          "type": "bytes32"
        }
      ],
      "stateMutability": "view",
      "type": "function"
    },
    {
      "inputs": [
        {
          "internalType": "uint256",
          "name": "",
          "type": "uint256"
        }
      ],
      "name": "s_requests",
      "outputs": [
        {
          "internalType": "bool",
          "name": "fulfilled",
          "type": "bool"
        },
        {
          "internalType": "bool",
          "name": "exists",
          "type": "bool"
        },
        {
          "internalType": "uint256",
          "name": "randomWord",
          "type": "uint256"
        },
        {
          "internalType": "uint256",
          "name": "tokenId",
          "type": "uint256"
        },
        {
          "internalType": "address",
          "name": "account",
          "type": "address"
        }
      ],
      "stateMutability": "view",
      "type": "function"
    },
    {
      "inputs": [],
      "name": "s_subscriptionId",
      "outputs": [
        {
          "internalType": "uint64",
          "name": "",
          "type": "uint64"
        }
      ],
      "stateMutability": "view",
      "type": "function"
    },
    {
      "inputs": [
        {
          "internalType": "address",
          "name": "from",
          "type": "address"
        },
        {
          "internalType": "address",
          "name": "to",
          "type": "address"
        },
        {
          "internalType": "uint256",
          "name": "tokenId",
          "type": "uint256"
        }
      ],
      "name": "safeTransferFrom",
      "outputs": [],
      "stateMutability": "nonpayable",
      "type": "function"
    },
    {
      "inputs": [
        {
          "internalType": "address",
          "name": "from",
          "type": "address"
        },
        {
          "internalType": "address",
          "name": "to",
          "type": "address"
        },
        {
          "internalType": "uint256",
          "name": "tokenId",
          "type": "uint256"
        },
        {
          "internalType": "bytes",
          "name": "data",
          "type": "bytes"
        }
      ],
      "name": "safeTransferFrom",
      "outputs": [],
      "stateMutability": "nonpayable",
      "type": "function"
    },
    {
      "inputs": [
        {
          "internalType": "address",
          "name": "operator",
          "type": "address"
        },
        {
          "internalType": "bool",
          "name": "approved",
          "type": "bool"
        }
      ],
      "name": "setApprovalForAll",
      "outputs": [],
      "stateMutability": "nonpayable",
      "type": "function"
    },
    {
      "inputs": [
        {
          "internalType": "bytes4",
          "name": "interfaceId",
          "type": "bytes4"
        }
      ],
      "name": "supportsInterface",
      "outputs": [
        {
          "internalType": "bool",
          "name": "",
          "type": "bool"
        }
      ],
      "stateMutability": "view",
      "type": "function"
    },
    {
      "inputs": [],
      "name": "symbol",
      "outputs": [
        {
          "internalType": "string",
          "name": "",
          "type": "string"
        }
      ],
      "stateMutability": "view",
      "type": "function"
    },
    {
      "inputs": [
        {
          "internalType": "uint256",
          "name": "index",
          "type": "uint256"
        }
      ],
      "name": "tokenByIndex",
      "outputs": [
        {
          "internalType": "uint256",
          "name": "",
          "type": "uint256"
        }
      ],
      "stateMutability": "view",
      "type": "function"
    },
    {
      "inputs": [
        {
          "internalType": "uint256",
          "name": "",
          "type": "uint256"
        }
      ],
      "name": "tokenIdToRequest",
      "outputs": [
        {
          "internalType": "uint256",
          "name": "",
          "type": "uint256"
        }
      ],
      "stateMutability": "view",
      "type": "function"
    },
    {
      "inputs": [
        {
          "internalType": "address",
          "name": "owner",
          "type": "address"
        },
        {
          "internalType": "uint256",
          "name": "index",
          "type": "uint256"
        }
      ],
      "name": "tokenOfOwnerByIndex",
      "outputs": [
        {
          "internalType": "uint256",
          "name": "",
          "type": "uint256"
        }
      ],
      "stateMutability": "view",
      "type": "function"
    },
    {
      "inputs": [
        {
          "internalType": "uint256",
          "name": "tokenId",
          "type": "uint256"
        }
      ],
      "name": "tokenURI",
      "outputs": [
        {
          "internalType": "string",
          "name": "",
          "type": "string"
        }
      ],
      "stateMutability": "view",
      "type": "function"
    },
    {
      "inputs": [],
      "name": "totalSupply",
      "outputs": [
        {
          "internalType": "uint256",
          "name": "",
          "type": "uint256"
        }
      ],
      "stateMutability": "view",
      "type": "function"
    },
    {
      "inputs": [
        {
          "internalType": "address",
          "name": "from",
          "type": "address"
        },
        {
          "internalType": "address",
          "name": "to",
          "type": "address"
        },
        {
          "internalType": "uint256",
          "name": "tokenId",
          "type": "uint256"
        }
      ],
      "name": "transferFrom",
      "outputs": [],
      "stateMutability": "nonpayable",
      "type": "function"
    }
  ],
  "bytecode": "0x6101206040523480156200001257600080fd5b5060405162002f8238038062002f82833981016040819052620000359162000117565b82604051806040016040528060118152602001704d63446f6e616c64734d6f6e6f706f6c7960781b815250604051806040016040528060028152602001614d4d60f01b81525081600090816200008c91906200021d565b5060016200009b82826200021d565b50506001600b55506001600160a01b0390811660805283811660c0526101008390526001600160401b03851660e052811660a052620000e7600c620000f1602090811b620012e717901c565b50505050620002e9565b80546001019055565b80516001600160a01b03811681146200011257600080fd5b919050565b600080600080608085870312156200012e57600080fd5b84516001600160401b03811681146200014657600080fd5b93506200015660208601620000fa565b9250604085015191506200016d60608601620000fa565b905092959194509250565b634e487b7160e01b600052604160045260246000fd5b600181811c90821680620001a357607f821691505b602082108103620001c457634e487b7160e01b600052602260045260246000fd5b50919050565b601f8211156200021857600081815260208120601f850160051c81016020861015620001f35750805b601f850160051c820191505b818110156200021457828155600101620001ff565b5050505b505050565b81516001600160401b0381111562000239576200023962000178565b62000251816200024a84546200018e565b84620001ca565b602080601f831160018114620002895760008415620002705750858301515b600019600386901b1c1916600185901b17855562000214565b600085815260208120601f198616915b82811015620002ba5788860151825594840194600190910190840162000299565b5085821015620002d95787850151600019600388901b60f8161c191681555b5050505050600190811b01905550565b60805160a05160c05160e05161010051612c3162000351600039600081816103710152610be40152600081816103f70152610c130152600081816103370152610c5e01526000818161047801526110dd01526000818161085e01526108a00152612c316000f3fe608060405234801561001057600080fd5b506004361061021c5760003560e01c80638796ba8c11610125578063b9ec4996116100ad578063d8a4676f1161007c578063d8a4676f146105c6578063daf56587146105f0578063e985e9c514610603578063ec87621c1461063f578063fc2a88c31461066657600080fd5b8063b9ec499614610544578063c57413fe14610580578063c87b56dd146105a0578063d547741f146105b357600080fd5b80639b0db549116100f45780639b0db54914610473578063a168fa891461049a578063a217fddf14610516578063a22cb4651461051e578063b88d4fde1461053157600080fd5b80638796ba8c146103df5780638ac00021146103f257806391d148541461043257806395d89b411461046b57600080fd5b80632f745c59116101a857806345bb327b1161017757806345bb327b1461036c5780634f6ccce7146103935780636352211e146103a657806370a08231146103b957806380c95b14146103cc57600080fd5b80632f745c591461030c57806336568abe1461031f5780633b2bcbf11461033257806342842e0e1461035957600080fd5b806318160ddd116101ef57806318160ddd1461029e5780631fe543e3146102b057806323b872dd146102c3578063248a9ca3146102d65780632f2ff15d146102f957600080fd5b806301ffc9a71461022157806306fdde0314610249578063081812fc1461025e578063095ea7b314610289575b600080fd5b61023461022f3660046124ff565b61066f565b60405190151581526020015b60405180910390f35b610251610680565b604051610240919061256c565b61027161026c36600461257f565b610712565b6040516001600160a01b039091168152602001610240565b61029c6102973660046125b4565b610739565b005b6008545b604051908152602001610240565b61029c6102be366004612625565b610853565b61029c6102d13660046126d7565b6108db565b6102a26102e436600461257f565b6000908152600a602052604090206001015490565b61029c610307366004612713565b61090c565b6102a261031a3660046125b4565b610931565b61029c61032d366004612713565b6109c7565b6102717f000000000000000000000000000000000000000000000000000000000000000081565b61029c6103673660046126d7565b610a41565b6102a27f000000000000000000000000000000000000000000000000000000000000000081565b6102a26103a136600461257f565b610a5c565b6102716103b436600461257f565b610aef565b6102a26103c736600461273f565b610b4f565b6102a26103da36600461273f565b610bd5565b6102a26103ed36600461257f565b610e0c565b6104197f000000000000000000000000000000000000000000000000000000000000000081565b60405167ffffffffffffffff9091168152602001610240565b610234610440366004612713565b6000918252600a602090815260408084206001600160a01b0393909316845291905290205460ff1690565b610251610e2d565b6102717f000000000000000000000000000000000000000000000000000000000000000081565b6104e36104a836600461257f565b601060205260009081526040902080546001820154600283015460039093015460ff808416946101009094041692906001600160a01b031685565b60408051951515865293151560208601529284019190915260608301526001600160a01b0316608082015260a001610240565b6102a2600081565b61029c61052c36600461275a565b610e3c565b61029c61053f3660046127ee565b610e47565b6102a261055236600461286a565b600d602090815260009283526040909220815180830184018051928152908401929093019190912091525481565b6102a261058e36600461257f565b60116020526000908152604090205481565b6102516105ae36600461257f565b610e7f565b61029c6105c1366004612713565b610ef3565b6105d96105d436600461257f565b610f18565b604080519215158352602083019190915201610240565b61029c6105fe36600461273f565b610fd6565b6102346106113660046128cc565b6001600160a01b03918216600090815260056020908152604080832093909416825291909152205460ff1690565b6102a27faf290d8680820aad922855f39b306097b20e28774d6c1ad35a20325630c3a02c81565b6102a2600f5481565b600061067a826112f0565b92915050565b60606000805461068f906128f6565b80601f01602080910402602001604051908101604052809291908181526020018280546106bb906128f6565b80156107085780601f106106dd57610100808354040283529160200191610708565b820191906000526020600020905b8154815290600101906020018083116106eb57829003601f168201915b5050505050905090565b600061071d82611315565b506000908152600460205260409020546001600160a01b031690565b600061074482610aef565b9050806001600160a01b0316836001600160a01b0316036107b65760405162461bcd60e51b815260206004820152602160248201527f4552433732313a20617070726f76616c20746f2063757272656e74206f776e656044820152603960f91b60648201526084015b60405180910390fd5b336001600160a01b03821614806107d257506107d28133610611565b6108445760405162461bcd60e51b815260206004820152603d60248201527f4552433732313a20617070726f76652063616c6c6572206973206e6f7420746f60448201527f6b656e206f776e6572206f7220617070726f76656420666f7220616c6c00000060648201526084016107ad565b61084e8383611377565b505050565b336001600160a01b037f000000000000000000000000000000000000000000000000000000000000000016146108cd5760405163073e64fd60e21b81523360048201526001600160a01b037f00000000000000000000000000000000000000000000000000000000000000001660248201526044016107ad565b6108d782826113e5565b5050565b6108e53382611515565b6109015760405162461bcd60e51b81526004016107ad90612930565b61084e838383611594565b6000828152600a602052604090206001015461092781611705565b61084e838361170f565b600061093c83610b4f565b821061099e5760405162461bcd60e51b815260206004820152602b60248201527f455243373231456e756d657261626c653a206f776e657220696e646578206f7560448201526a74206f6620626f756e647360a81b60648201526084016107ad565b506001600160a01b03919091166000908152600660209081526040808320938352929052205490565b6001600160a01b0381163314610a375760405162461bcd60e51b815260206004820152602f60248201527f416363657373436f6e74726f6c3a2063616e206f6e6c792072656e6f756e636560448201526e103937b632b9903337b91039b2b63360891b60648201526084016107ad565b6108d782826117b1565b61084e83838360405180602001604052806000815250610e47565b6000610a6760085490565b8210610aca5760405162461bcd60e51b815260206004820152602c60248201527f455243373231456e756d657261626c653a20676c6f62616c20696e646578206f60448201526b7574206f6620626f756e647360a01b60648201526084016107ad565b60088281548110610add57610add61297d565b90600052602060002001549050919050565b6000818152600260205260408120546001600160a01b03168061067a5760405162461bcd60e51b8152602060048201526018602482015277115490cdcc8c4e881a5b9d985b1a59081d1bdad95b88125160421b60448201526064016107ad565b60006001600160a01b038216610bb95760405162461bcd60e51b815260206004820152602960248201527f4552433732313a2061646472657373207a65726f206973206e6f7420612076616044820152683634b21037bbb732b960b91b60648201526084016107ad565b506001600160a01b031660009081526003602052604090205490565b6040516305d3b1d360e41b81527f0000000000000000000000000000000000000000000000000000000000000000600482015267ffffffffffffffff7f000000000000000000000000000000000000000000000000000000000000000016602482015260036044820152620186a060648201526001608482015260009081906001600160a01b037f00000000000000000000000000000000000000000000000000000000000000001690635d3b1d309060a4016020604051808303816000875af1158015610ca7573d6000803e3d6000fd5b505050506040513d601f19601f82011682018060405250810190610ccb9190612993565b90506000610cd8600c5490565b9050610ce48482611834565b6000818152601160209081526040808320859055805160a081018252838152600181840181815282840186815260608085018981526001600160a01b038d8116608088018181528d8c5260108b52898c2098518954975161ffff1990981690151561ff0019161761010097151597909702969096178855935187870155905160028701559251600390950180546001600160a01b0319169590931694909417909155600e8054808401825596527fbb7b4a454dc3493923482f07822329ed19e8244eff582cc204f8554c3620c3fd909501879055600f8790558251878152938401529082018490527f1b970ebafed35c9a56ac2fcb89255f1f7b67bd8b2f87f5f6fbed5dd90b47f845910160405180910390a2610e05600c80546001019055565b5092915050565b600e8181548110610e1c57600080fd5b600091825260209091200154905081565b60606001805461068f906128f6565b6108d73383836119cd565b610e513383611515565b610e6d5760405162461bcd60e51b81526004016107ad90612930565b610e7984848484611a9b565b50505050565b6060610e8a82611315565b6000610ea160408051602081019091526000815290565b90506000815111610ec15760405180602001604052806000815250610eec565b80610ecb84611ace565b604051602001610edc9291906129ac565b6040516020818303038152906040525b9392505050565b6000828152600a6020526040902060010154610f0e81611705565b61084e83836117b1565b6000818152601060205260408120548190610100900460ff16610f715760405162461bcd60e51b8152602060048201526011602482015270149154555154d517d393d517d193d55391607a1b60448201526064016107ad565b5050600090815260106020908152604091829020825160a081018452815460ff8082161515808452610100909204161515938201939093526001820154938101849052600282015460608201526003909101546001600160a01b031660809091015291565b6001600160a01b0381166000908152600d60205260408082209051664d45445f41564560c81b81526007019081526020016040518091039020541161104a5760405162461bcd60e51b815260206004820152600a6024820152694e4f5f4d45445f41564560b01b60448201526064016107ad565b6001600160a01b0381166000908152600d602052604080822090516642414c5f41564560c81b8152600701908152602001604051809103902054116110be5760405162461bcd60e51b815260206004820152600a6024820152694e4f5f42414c5f41564560b01b60448201526064016107ad565b6040516305a7ffd760e01b81526001600160a01b0382811660048301527f000000000000000000000000000000000000000000000000000000000000000016906305a7ffd790602401600060405180830381600087803b15801561112157600080fd5b505af1158015611135573d6000803e3d6000fd5b505050506001600160a01b0381166000908152600d6020526040908190209051664d45445f41564560c81b8152600191906007019081526020016040518091039020600082825461118691906129f1565b90915550506001600160a01b0381166000908152600d60205260409081902090516642414c5f41564560c81b815260019190600701908152602001604051809103902060008282546111d891906129f1565b90915550600090508080805b6111ed85610b4f565b8110156112e0576111fe8582610931565b9150600184151514801561121457506001831515145b15611220575050505050565b8315801561124d575060008281526011602090815260408083205483526010909152902060019081015411155b156112645761125b82611b61565b600193506112ce565b821580156112905750600082815260116020908152604080832054835260109091529020600190810154115b80156112bb575060008281526011602090815260408083205483526010909152902060010154600210155b156112ce576112c982611b61565b600192505b806112d881612a04565b9150506111e4565b5050505050565b80546001019055565b60006001600160e01b03198216637965db0b60e01b148061067a575061067a82611c04565b6000818152600260205260409020546001600160a01b03166113745760405162461bcd60e51b8152602060048201526018602482015277115490cdcc8c4e881a5b9d985b1a59081d1bdad95b88125160421b60448201526064016107ad565b50565b600081815260046020526040902080546001600160a01b0319166001600160a01b03841690811790915581906113ac82610aef565b6001600160a01b03167f8c5be1e5ebec7d5bd14f71427d1e84f3dd0314c0f7b2291e5b200ac8c7c3b92560405160405180910390a45050565b600082815260106020526040902054610100900460ff1661143c5760405162461bcd60e51b8152602060048201526011602482015270149154555154d517d393d517d193d55391607a1b60448201526064016107ad565b6000828152601060205260408120805460ff1916600190811790915582516002908490849061146d5761146d61297d565b602002602001015161147f9190612a1d565b6114899190612a3f565b60008481526010602052604090206003810154600282015460019092018390559192506001600160a01b03909116906114c28284611c29565b60408051868152602081018590529081018290526001600160a01b038316907f56e0cc2d4dc57e3181be0d9b6c9331f3724de325e6ac9df948ea0ad5dd8e8f5c9060600160405180910390a25050505050565b60008061152183610aef565b9050806001600160a01b0316846001600160a01b0316148061156857506001600160a01b0380821660009081526005602090815260408083209388168352929052205460ff165b8061158c5750836001600160a01b031661158184610712565b6001600160a01b0316145b949350505050565b826001600160a01b03166115a782610aef565b6001600160a01b0316146115cd5760405162461bcd60e51b81526004016107ad90612a52565b6001600160a01b03821661162f5760405162461bcd60e51b8152602060048201526024808201527f4552433732313a207472616e7366657220746f20746865207a65726f206164646044820152637265737360e01b60648201526084016107ad565b61163c8383836001611dd8565b826001600160a01b031661164f82610aef565b6001600160a01b0316146116755760405162461bcd60e51b81526004016107ad90612a52565b600081815260046020908152604080832080546001600160a01b03199081169091556001600160a01b0387811680865260038552838620805460001901905590871680865283862080546001019055868652600290945282852080549092168417909155905184937fddf252ad1be2c89b69c2b068fc378daa952ba7f163c4a11628f55a4df523b3ef91a4505050565b6113748133611f0d565b6000828152600a602090815260408083206001600160a01b038516845290915290205460ff166108d7576000828152600a602090815260408083206001600160a01b03851684529091529020805460ff1916600117905561176d3390565b6001600160a01b0316816001600160a01b0316837f2f8788117e7eff1d82e926ec794901d17c78024a50270940304540a733656f0d60405160405180910390a45050565b6000828152600a602090815260408083206001600160a01b038516845290915290205460ff16156108d7576000828152600a602090815260408083206001600160a01b0385168085529252808320805460ff1916905551339285917ff6391f5c32d9c69d2a47ea670b442974b53935d1edc7fd64eb21e047a839171b9190a45050565b6001600160a01b03821661188a5760405162461bcd60e51b815260206004820181905260248201527f4552433732313a206d696e7420746f20746865207a65726f206164647265737360448201526064016107ad565b6000818152600260205260409020546001600160a01b0316156118ef5760405162461bcd60e51b815260206004820152601c60248201527f4552433732313a20746f6b656e20616c7265616479206d696e7465640000000060448201526064016107ad565b6118fd600083836001611dd8565b6000818152600260205260409020546001600160a01b0316156119625760405162461bcd60e51b815260206004820152601c60248201527f4552433732313a20746f6b656e20616c7265616479206d696e7465640000000060448201526064016107ad565b6001600160a01b038216600081815260036020908152604080832080546001019055848352600290915280822080546001600160a01b0319168417905551839291907fddf252ad1be2c89b69c2b068fc378daa952ba7f163c4a11628f55a4df523b3ef908290a45050565b816001600160a01b0316836001600160a01b031603611a2e5760405162461bcd60e51b815260206004820152601960248201527f4552433732313a20617070726f766520746f2063616c6c65720000000000000060448201526064016107ad565b6001600160a01b03838116600081815260056020908152604080832094871680845294825291829020805460ff191686151590811790915591519182527f17307eab39ab6107e8899845ad3d59bd9653f200f220920489ca2b5937696c31910160405180910390a3505050565b611aa6848484611594565b611ab284848484611f82565b610e795760405162461bcd60e51b81526004016107ad90612a97565b60606000611adb83612083565b600101905060008167ffffffffffffffff811115611afb57611afb6125de565b6040519080825280601f01601f191660200182016040528015611b25576020820181803683370190505b5090508181016020015b600019016f181899199a1a9b1b9c1cb0b131b232b360811b600a86061a8153600a8504945084611b2f57509392505050565b6000611b6c82610aef565b9050611b7c816000846001611dd8565b611b8582610aef565b600083815260046020908152604080832080546001600160a01b03199081169091556001600160a01b0385168085526003845282852080546000190190558785526002909352818420805490911690555192935084927fddf252ad1be2c89b69c2b068fc378daa952ba7f163c4a11628f55a4df523b3ef908390a45050565b60006001600160e01b0319821663780e9d6360e01b148061067a575061067a8261215b565b60018111611c8a576001600160a01b0382166000908152600d6020526040908190209051664d45445f41564560c81b8152600191906007015b90815260200160405180910390206000828254611c7f9190612a3f565b909155506108d79050565b600181118015611c9b575060028111155b15611cd5576001600160a01b0382166000908152600d60205260409081902090516642414c5f41564560c81b815260019190600701611c62565b600281118015611ce6575060038111155b15611d21576001600160a01b0382166000908152600d602052604090819020905167434f4e4e5f41564560c01b815260019190600801611c62565b600381118015611d32575060048111155b15611d6c576001600160a01b0382166000908152600d6020526040908190209051665645525f41564560c81b815260019190600701611c62565b600481118015611d7d575060058111155b156108d7576001600160a01b0382166000908152600d6020526040908190209051664f52495f41564560c81b81526001919060070190815260200160405180910390206000828254611dcf9190612a3f565b90915550505050565b6001811115611e4f5760405162461bcd60e51b815260206004820152603560248201527f455243373231456e756d657261626c653a20636f6e736563757469766520747260448201527f616e7366657273206e6f7420737570706f72746564000000000000000000000060648201526084016107ad565b816001600160a01b038516611eab57611ea681600880546000838152600960205260408120829055600182018355919091527ff3f7a9fe364faab93b216da50a3214154f22a0a2b415b23a84c8169e8b636ee30155565b611ece565b836001600160a01b0316856001600160a01b031614611ece57611ece85826121ab565b6001600160a01b038416611eea57611ee581612248565b6112e0565b846001600160a01b0316846001600160a01b0316146112e0576112e084826122f7565b6000828152600a602090815260408083206001600160a01b038516845290915290205460ff166108d757611f408161233b565b611f4b83602061234d565b604051602001611f5c929190612ae9565b60408051601f198184030181529082905262461bcd60e51b82526107ad9160040161256c565b60006001600160a01b0384163b1561207857604051630a85bd0160e11b81526001600160a01b0385169063150b7a0290611fc6903390899088908890600401612b5e565b6020604051808303816000875af1925050508015612001575060408051601f3d908101601f19168201909252611ffe91810190612b9a565b60015b61205e573d80801561202f576040519150601f19603f3d011682016040523d82523d6000602084013e612034565b606091505b5080516000036120565760405162461bcd60e51b81526004016107ad90612a97565b805181602001fd5b6001600160e01b031916630a85bd0160e11b14905061158c565b506001949350505050565b60008072184f03e93ff9f4daa797ed6e38ed64bf6a1f0160401b83106120c25772184f03e93ff9f4daa797ed6e38ed64bf6a1f0160401b830492506040015b6d04ee2d6d415b85acef810000000083106120ee576d04ee2d6d415b85acef8100000000830492506020015b662386f26fc10000831061210c57662386f26fc10000830492506010015b6305f5e1008310612124576305f5e100830492506008015b612710831061213857612710830492506004015b6064831061214a576064830492506002015b600a831061067a5760010192915050565b60006001600160e01b031982166380ac58cd60e01b148061218c57506001600160e01b03198216635b5e139f60e01b145b8061067a57506301ffc9a760e01b6001600160e01b031983161461067a565b600060016121b884610b4f565b6121c291906129f1565b600083815260076020526040902054909150808214612215576001600160a01b03841660009081526006602090815260408083208584528252808320548484528184208190558352600790915290208190555b5060009182526007602090815260408084208490556001600160a01b039094168352600681528383209183525290812055565b60085460009061225a906001906129f1565b600083815260096020526040812054600880549394509092849081106122825761228261297d565b9060005260206000200154905080600883815481106122a3576122a361297d565b60009182526020808320909101929092558281526009909152604080822084905585825281205560088054806122db576122db612bb7565b6001900381819060005260206000200160009055905550505050565b600061230283610b4f565b6001600160a01b039093166000908152600660209081526040808320868452825280832085905593825260079052919091209190915550565b606061067a6001600160a01b03831660145b6060600061235c836002612bcd565b612367906002612a3f565b67ffffffffffffffff81111561237f5761237f6125de565b6040519080825280601f01601f1916602001820160405280156123a9576020820181803683370190505b509050600360fc1b816000815181106123c4576123c461297d565b60200101906001600160f81b031916908160001a905350600f60fb1b816001815181106123f3576123f361297d565b60200101906001600160f81b031916908160001a9053506000612417846002612bcd565b612422906001612a3f565b90505b600181111561249a576f181899199a1a9b1b9c1cb0b131b232b360811b85600f16601081106124565761245661297d565b1a60f81b82828151811061246c5761246c61297d565b60200101906001600160f81b031916908160001a90535060049490941c9361249381612be4565b9050612425565b508315610eec5760405162461bcd60e51b815260206004820181905260248201527f537472696e67733a20686578206c656e67746820696e73756666696369656e7460448201526064016107ad565b6001600160e01b03198116811461137457600080fd5b60006020828403121561251157600080fd5b8135610eec816124e9565b60005b8381101561253757818101518382015260200161251f565b50506000910152565b6000815180845261255881602086016020860161251c565b601f01601f19169290920160200192915050565b602081526000610eec6020830184612540565b60006020828403121561259157600080fd5b5035919050565b80356001600160a01b03811681146125af57600080fd5b919050565b600080604083850312156125c757600080fd5b6125d083612598565b946020939093013593505050565b634e487b7160e01b600052604160045260246000fd5b604051601f8201601f1916810167ffffffffffffffff8111828210171561261d5761261d6125de565b604052919050565b6000806040838503121561263857600080fd5b8235915060208084013567ffffffffffffffff8082111561265857600080fd5b818601915086601f83011261266c57600080fd5b81358181111561267e5761267e6125de565b8060051b915061268f8483016125f4565b81815291830184019184810190898411156126a957600080fd5b938501935b838510156126c7578435825293850193908501906126ae565b8096505050505050509250929050565b6000806000606084860312156126ec57600080fd5b6126f584612598565b925061270360208501612598565b9150604084013590509250925092565b6000806040838503121561272657600080fd5b8235915061273660208401612598565b90509250929050565b60006020828403121561275157600080fd5b610eec82612598565b6000806040838503121561276d57600080fd5b61277683612598565b91506020830135801515811461278b57600080fd5b809150509250929050565b600067ffffffffffffffff8311156127b0576127b06125de565b6127c3601f8401601f19166020016125f4565b90508281528383830111156127d757600080fd5b828260208301376000602084830101529392505050565b6000806000806080858703121561280457600080fd5b61280d85612598565b935061281b60208601612598565b925060408501359150606085013567ffffffffffffffff81111561283e57600080fd5b8501601f8101871361284f57600080fd5b61285e87823560208401612796565b91505092959194509250565b6000806040838503121561287d57600080fd5b61288683612598565b9150602083013567ffffffffffffffff8111156128a257600080fd5b8301601f810185136128b357600080fd5b6128c285823560208401612796565b9150509250929050565b600080604083850312156128df57600080fd5b6128e883612598565b915061273660208401612598565b600181811c9082168061290a57607f821691505b60208210810361292a57634e487b7160e01b600052602260045260246000fd5b50919050565b6020808252602d908201527f4552433732313a2063616c6c6572206973206e6f7420746f6b656e206f776e6560408201526c1c881bdc88185c1c1c9bdd9959609a1b606082015260800190565b634e487b7160e01b600052603260045260246000fd5b6000602082840312156129a557600080fd5b5051919050565b600083516129be81846020880161251c565b8351908301906129d281836020880161251c565b01949350505050565b634e487b7160e01b600052601160045260246000fd5b8181038181111561067a5761067a6129db565b600060018201612a1657612a166129db565b5060010190565b600082612a3a57634e487b7160e01b600052601260045260246000fd5b500690565b8082018082111561067a5761067a6129db565b60208082526025908201527f4552433732313a207472616e736665722066726f6d20696e636f72726563742060408201526437bbb732b960d91b606082015260800190565b60208082526032908201527f4552433732313a207472616e7366657220746f206e6f6e20455243373231526560408201527131b2b4bb32b91034b6b83632b6b2b73a32b960711b606082015260800190565b7f416363657373436f6e74726f6c3a206163636f756e7420000000000000000000815260008351612b2181601785016020880161251c565b7001034b99036b4b9b9b4b733903937b6329607d1b6017918401918201528351612b5281602884016020880161251c565b01602801949350505050565b60006001600160a01b03808716835280861660208401525083604083015260806060830152612b906080830184612540565b9695505050505050565b600060208284031215612bac57600080fd5b8151610eec816124e9565b634e487b7160e01b600052603160045260246000fd5b808202811582820484141761067a5761067a6129db565b600081612bf357612bf36129db565b50600019019056fea264697066735822122092c9f7cd11763c92bb1e063078ec8dda8028ca1363f27ce564efc5afc39c834564736f6c63430008120033",
  "linkReferences": {},
  "deployedLinkReferences": {}
}