{
  "_format": "hh-sol-artifact-1",
  "contractName": "Monopoly",
  "sourceName": "contracts/Monopoly.sol",
  "abi": [
    {
      "inputs": [
        {
          "internalType": "uint64",
          "name": "subscriptionId",
          "type": "uint64"
        },
        {
          "internalType": "address",
          "name": "vrfCoordinator",
          "type": "address"
        },
        {
          "internalType": "bytes32",
          "name": "keyHash",
          "type": "bytes32"
        },
        {
          "internalType": "address",
          "name": "prizes",
          "type": "address"
        }
      ],
      "stateMutability": "nonpayable",
      "type": "constructor"
    },
    {
      "inputs": [
        {
          "internalType": "address",
          "name": "have",
          "type": "address"
        },
        {
          "internalType": "address",
          "name": "want",
          "type": "address"
        }
      ],
      "name": "OnlyCoordinatorCanFulfill",
      "type": "error"
    },
    {
      "anonymous": false,
      "inputs": [
        {
          "indexed": true,
          "internalType": "address",
          "name": "owner",
          "type": "address"
        },
        {
          "indexed": true,
          "internalType": "address",
          "name": "approved",
          "type": "address"
        },
        {
          "indexed": true,
          "internalType": "uint256",
          "name": "tokenId",
          "type": "uint256"
        }
      ],
      "name": "Approval",
      "type": "event"
    },
    {
      "anonymous": false,
      "inputs": [
        {
          "indexed": true,
          "internalType": "address",
          "name": "owner",
          "type": "address"
        },
        {
          "indexed": true,
          "internalType": "address",
          "name": "operator",
          "type": "address"
        },
        {
          "indexed": false,
          "internalType": "bool",
          "name": "approved",
          "type": "bool"
        }
      ],
      "name": "ApprovalForAll",
      "type": "event"
    },
    {
      "anonymous": false,
      "inputs": [
        {
          "indexed": false,
          "internalType": "uint256",
          "name": "requestId",
          "type": "uint256"
        },
        {
          "indexed": false,
          "internalType": "uint256",
          "name": "randomWord",
          "type": "uint256"
        },
        {
          "indexed": true,
          "internalType": "address",
          "name": "account",
          "type": "address"
        },
        {
          "indexed": false,
          "internalType": "uint256",
          "name": "tokenId",
          "type": "uint256"
        }
      ],
      "name": "RequestFulfilled",
      "type": "event"
    },
    {
      "anonymous": false,
      "inputs": [
        {
          "indexed": false,
          "internalType": "uint256",
          "name": "requestId",
          "type": "uint256"
        },
        {
          "indexed": false,
          "internalType": "uint32",
          "name": "numWords",
          "type": "uint32"
        },
        {
          "indexed": true,
          "internalType": "address",
          "name": "account",
          "type": "address"
        },
        {
          "indexed": false,
          "internalType": "uint256",
          "name": "tokenId",
          "type": "uint256"
        }
      ],
      "name": "RequestSent",
      "type": "event"
    },
    {
      "anonymous": false,
      "inputs": [
        {
          "indexed": true,
          "internalType": "bytes32",
          "name": "role",
          "type": "bytes32"
        },
        {
          "indexed": true,
          "internalType": "bytes32",
          "name": "previousAdminRole",
          "type": "bytes32"
        },
        {
          "indexed": true,
          "internalType": "bytes32",
          "name": "newAdminRole",
          "type": "bytes32"
        }
      ],
      "name": "RoleAdminChanged",
      "type": "event"
    },
    {
      "anonymous": false,
      "inputs": [
        {
          "indexed": true,
          "internalType": "bytes32",
          "name": "role",
          "type": "bytes32"
        },
        {
          "indexed": true,
          "internalType": "address",
          "name": "account",
          "type": "address"
        },
        {
          "indexed": true,
          "internalType": "address",
          "name": "sender",
          "type": "address"
        }
      ],
      "name": "RoleGranted",
      "type": "event"
    },
    {
      "anonymous": false,
      "inputs": [
        {
          "indexed": true,
          "internalType": "bytes32",
          "name": "role",
          "type": "bytes32"
        },
        {
          "indexed": true,
          "internalType": "address",
          "name": "account",
          "type": "address"
        },
        {
          "indexed": true,
          "internalType": "address",
          "name": "sender",
          "type": "address"
        }
      ],
      "name": "RoleRevoked",
      "type": "event"
    },
    {
      "anonymous": false,
      "inputs": [
        {
          "indexed": true,
          "internalType": "address",
          "name": "from",
          "type": "address"
        },
        {
          "indexed": true,
          "internalType": "address",
          "name": "to",
          "type": "address"
        },
        {
          "indexed": true,
          "internalType": "uint256",
          "name": "tokenId",
          "type": "uint256"
        }
      ],
      "name": "Transfer",
      "type": "event"
    },
    {
      "inputs": [],
      "name": "COORDINATOR",
      "outputs": [
        {
          "internalType": "contract VRFCoordinatorV2Interface",
          "name": "",
          "type": "address"
        }
      ],
      "stateMutability": "view",
      "type": "function"
    },
    {
      "inputs": [],
      "name": "DEFAULT_ADMIN_ROLE",
      "outputs": [
        {
          "internalType": "bytes32",
          "name": "",
          "type": "bytes32"
        }
      ],
      "stateMutability": "view",
      "type": "function"
    },
    {
      "inputs": [],
      "name": "MANAGER_ROLE",
      "outputs": [
        {
          "internalType": "bytes32",
          "name": "",
          "type": "bytes32"
        }
      ],
      "stateMutability": "view",
      "type": "function"
    },
    {
      "inputs": [],
      "name": "PRIZES",
      "outputs": [
        {
          "internalType": "contract Prizes",
          "name": "",
          "type": "address"
        }
      ],
      "stateMutability": "view",
      "type": "function"
    },
    {
      "inputs": [
        {
          "internalType": "address",
          "name": "",
          "type": "address"
        },
        {
          "internalType": "string",
          "name": "",
          "type": "string"
        }
      ],
      "name": "accountToPropertyCount",
      "outputs": [
        {
          "internalType": "uint256",
          "name": "",
          "type": "uint256"
        }
      ],
      "stateMutability": "view",
      "type": "function"
    },
    {
      "inputs": [
        {
          "internalType": "address",
          "name": "to",
          "type": "address"
        },
        {
          "internalType": "uint256",
          "name": "tokenId",
          "type": "uint256"
        }
      ],
      "name": "approve",
      "outputs": [],
      "stateMutability": "nonpayable",
      "type": "function"
    },
    {
      "inputs": [
        {
          "internalType": "address",
          "name": "owner",
          "type": "address"
        }
      ],
      "name": "balanceOf",
      "outputs": [
        {
          "internalType": "uint256",
          "name": "",
          "type": "uint256"
        }
      ],
      "stateMutability": "view",
      "type": "function"
    },
    {
      "inputs": [
        {
          "internalType": "address",
          "name": "account_",
          "type": "address"
        }
      ],
      "name": "claimBrownSet",
      "outputs": [],
      "stateMutability": "nonpayable",
      "type": "function"
    },
    {
      "inputs": [
        {
          "internalType": "address",
          "name": "account_",
          "type": "address"
        }
      ],
      "name": "claimLightBlueSet",
      "outputs": [],
      "stateMutability": "nonpayable",
      "type": "function"
    },
    {
      "inputs": [
        {
          "internalType": "uint256",
          "name": "tokenId",
          "type": "uint256"
        }
      ],
      "name": "getApproved",
      "outputs": [
        {
          "internalType": "address",
          "name": "",
          "type": "address"
        }
      ],
      "stateMutability": "view",
      "type": "function"
    },
    {
      "inputs": [
        {
          "internalType": "uint256",
          "name": "_requestId",
          "type": "uint256"
        }
      ],
      "name": "getRequestStatus",
      "outputs": [
        {
          "internalType": "bool",
          "name": "fulfilled",
          "type": "bool"
        },
        {
          "internalType": "uint256",
          "name": "randomWord",
          "type": "uint256"
        }
      ],
      "stateMutability": "view",
      "type": "function"
    },
    {
      "inputs": [
        {
          "internalType": "bytes32",
          "name": "role",
          "type": "bytes32"
        }
      ],
      "name": "getRoleAdmin",
      "outputs": [
        {
          "internalType": "bytes32",
          "name": "",
          "type": "bytes32"
        }
      ],
      "stateMutability": "view",
      "type": "function"
    },
    {
      "inputs": [
        {
          "internalType": "bytes32",
          "name": "role",
          "type": "bytes32"
        },
        {
          "internalType": "address",
          "name": "account",
          "type": "address"
        }
      ],
      "name": "grantRole",
      "outputs": [],
      "stateMutability": "nonpayable",
      "type": "function"
    },
    {
      "inputs": [
        {
          "internalType": "bytes32",
          "name": "role",
          "type": "bytes32"
        },
        {
          "internalType": "address",
          "name": "account",
          "type": "address"
        }
      ],
      "name": "hasRole",
      "outputs": [
        {
          "internalType": "bool",
          "name": "",
          "type": "bool"
        }
      ],
      "stateMutability": "view",
      "type": "function"
    },
    {
      "inputs": [
        {
          "internalType": "address",
          "name": "owner",
          "type": "address"
        },
        {
          "internalType": "address",
          "name": "operator",
          "type": "address"
        }
      ],
      "name": "isApprovedForAll",
      "outputs": [
        {
          "internalType": "bool",
          "name": "",
          "type": "bool"
        }
      ],
      "stateMutability": "view",
      "type": "function"
    },
    {
      "inputs": [],
      "name": "lastRequestId",
      "outputs": [
        {
          "internalType": "uint256",
          "name": "",
          "type": "uint256"
        }
      ],
      "stateMutability": "view",
      "type": "function"
    },
    {
      "inputs": [],
      "name": "name",
      "outputs": [
        {
          "internalType": "string",
          "name": "",
          "type": "string"
        }
      ],
      "stateMutability": "view",
      "type": "function"
    },
    {
      "inputs": [
        {
          "internalType": "uint256",
          "name": "tokenId",
          "type": "uint256"
        }
      ],
      "name": "ownerOf",
      "outputs": [
        {
          "internalType": "address",
          "name": "",
          "type": "address"
        }
      ],
      "stateMutability": "view",
      "type": "function"
    },
    {
      "inputs": [
        {
          "internalType": "uint256",
          "name": "requestId",
          "type": "uint256"
        },
        {
          "internalType": "uint256[]",
          "name": "randomWords",
          "type": "uint256[]"
        }
      ],
      "name": "rawFulfillRandomWords",
      "outputs": [],
      "stateMutability": "nonpayable",
      "type": "function"
    },
    {
      "inputs": [
        {
          "internalType": "bytes32",
          "name": "role",
          "type": "bytes32"
        },
        {
          "internalType": "address",
          "name": "account",
          "type": "address"
        }
      ],
      "name": "renounceRole",
      "outputs": [],
      "stateMutability": "nonpayable",
      "type": "function"
    },
    {
      "inputs": [
        {
          "internalType": "uint256",
          "name": "",
          "type": "uint256"
        }
      ],
      "name": "requestIds",
      "outputs": [
        {
          "internalType": "uint256",
          "name": "",
          "type": "uint256"
        }
      ],
      "stateMutability": "view",
      "type": "function"
    },
    {
      "inputs": [
        {
          "internalType": "address",
          "name": "account_",
          "type": "address"
        }
      ],
      "name": "requestRandomWords",
      "outputs": [
        {
          "internalType": "uint256",
          "name": "",
          "type": "uint256"
        }
      ],
      "stateMutability": "nonpayable",
      "type": "function"
    },
    {
      "inputs": [
        {
          "internalType": "bytes32",
          "name": "role",
          "type": "bytes32"
        },
        {
          "internalType": "address",
          "name": "account",
          "type": "address"
        }
      ],
      "name": "revokeRole",
      "outputs": [],
      "stateMutability": "nonpayable",
      "type": "function"
    },
    {
      "inputs": [],
      "name": "s_keyHash",
      "outputs": [
        {
          "internalType": "bytes32",
          "name": "",
          "type": "bytes32"
        }
      ],
      "stateMutability": "view",
      "type": "function"
    },
    {
      "inputs": [
        {
          "internalType": "uint256",
          "name": "",
          "type": "uint256"
        }
      ],
      "name": "s_requests",
      "outputs": [
        {
          "internalType": "bool",
          "name": "fulfilled",
          "type": "bool"
        },
        {
          "internalType": "bool",
          "name": "exists",
          "type": "bool"
        },
        {
          "internalType": "uint256",
          "name": "randomWord",
          "type": "uint256"
        },
        {
          "internalType": "uint256",
          "name": "tokenId",
          "type": "uint256"
        },
        {
          "internalType": "address",
          "name": "account",
          "type": "address"
        }
      ],
      "stateMutability": "view",
      "type": "function"
    },
    {
      "inputs": [],
      "name": "s_subscriptionId",
      "outputs": [
        {
          "internalType": "uint64",
          "name": "",
          "type": "uint64"
        }
      ],
      "stateMutability": "view",
      "type": "function"
    },
    {
      "inputs": [
        {
          "internalType": "address",
          "name": "from",
          "type": "address"
        },
        {
          "internalType": "address",
          "name": "to",
          "type": "address"
        },
        {
          "internalType": "uint256",
          "name": "tokenId",
          "type": "uint256"
        }
      ],
      "name": "safeTransferFrom",
      "outputs": [],
      "stateMutability": "nonpayable",
      "type": "function"
    },
    {
      "inputs": [
        {
          "internalType": "address",
          "name": "from",
          "type": "address"
        },
        {
          "internalType": "address",
          "name": "to",
          "type": "address"
        },
        {
          "internalType": "uint256",
          "name": "tokenId",
          "type": "uint256"
        },
        {
          "internalType": "bytes",
          "name": "data",
          "type": "bytes"
        }
      ],
      "name": "safeTransferFrom",
      "outputs": [],
      "stateMutability": "nonpayable",
      "type": "function"
    },
    {
      "inputs": [
        {
          "internalType": "address",
          "name": "operator",
          "type": "address"
        },
        {
          "internalType": "bool",
          "name": "approved",
          "type": "bool"
        }
      ],
      "name": "setApprovalForAll",
      "outputs": [],
      "stateMutability": "nonpayable",
      "type": "function"
    },
    {
      "inputs": [
        {
          "internalType": "bytes4",
          "name": "interfaceId",
          "type": "bytes4"
        }
      ],
      "name": "supportsInterface",
      "outputs": [
        {
          "internalType": "bool",
          "name": "",
          "type": "bool"
        }
      ],
      "stateMutability": "view",
      "type": "function"
    },
    {
      "inputs": [],
      "name": "symbol",
      "outputs": [
        {
          "internalType": "string",
          "name": "",
          "type": "string"
        }
      ],
      "stateMutability": "view",
      "type": "function"
    },
    {
      "inputs": [
        {
          "internalType": "uint256",
          "name": "index",
          "type": "uint256"
        }
      ],
      "name": "tokenByIndex",
      "outputs": [
        {
          "internalType": "uint256",
          "name": "",
          "type": "uint256"
        }
      ],
      "stateMutability": "view",
      "type": "function"
    },
    {
      "inputs": [
        {
          "internalType": "uint256",
          "name": "",
          "type": "uint256"
        }
      ],
      "name": "tokenIdToRequest",
      "outputs": [
        {
          "internalType": "uint256",
          "name": "",
          "type": "uint256"
        }
      ],
      "stateMutability": "view",
      "type": "function"
    },
    {
      "inputs": [
        {
          "internalType": "address",
          "name": "owner",
          "type": "address"
        },
        {
          "internalType": "uint256",
          "name": "index",
          "type": "uint256"
        }
      ],
      "name": "tokenOfOwnerByIndex",
      "outputs": [
        {
          "internalType": "uint256",
          "name": "",
          "type": "uint256"
        }
      ],
      "stateMutability": "view",
      "type": "function"
    },
    {
      "inputs": [
        {
          "internalType": "uint256",
          "name": "tokenId",
          "type": "uint256"
        }
      ],
      "name": "tokenURI",
      "outputs": [
        {
          "internalType": "string",
          "name": "",
          "type": "string"
        }
      ],
      "stateMutability": "view",
      "type": "function"
    },
    {
      "inputs": [],
      "name": "totalSupply",
      "outputs": [
        {
          "internalType": "uint256",
          "name": "",
          "type": "uint256"
        }
      ],
      "stateMutability": "view",
      "type": "function"
    },
    {
      "inputs": [
        {
          "internalType": "address",
          "name": "from",
          "type": "address"
        },
        {
          "internalType": "address",
          "name": "to",
          "type": "address"
        },
        {
          "internalType": "uint256",
          "name": "tokenId",
          "type": "uint256"
        }
      ],
      "name": "transferFrom",
      "outputs": [],
      "stateMutability": "nonpayable",
      "type": "function"
    }
  ],
  "bytecode": "0x6101206040523480156200001257600080fd5b50604051620030a7380380620030a7833981016040819052620000359162000117565b82604051806040016040528060118152602001704d63446f6e616c64734d6f6e6f706f6c7960781b815250604051806040016040528060028152602001614d4d60f01b81525081600090816200008c91906200021d565b5060016200009b82826200021d565b50506001600b55506001600160a01b0390811660805283811660c0526101008390526001600160401b03851660e052811660a052620000e7600c620000f1602090811b620014b217901c565b50505050620002e9565b80546001019055565b80516001600160a01b03811681146200011257600080fd5b919050565b600080600080608085870312156200012e57600080fd5b84516001600160401b03811681146200014657600080fd5b93506200015660208601620000fa565b9250604085015191506200016d60608601620000fa565b905092959194509250565b634e487b7160e01b600052604160045260246000fd5b600181811c90821680620001a357607f821691505b602082108103620001c457634e487b7160e01b600052602260045260246000fd5b50919050565b601f8211156200021857600081815260208120601f850160051c81016020861015620001f35750805b601f850160051c820191505b818110156200021457828155600101620001ff565b5050505b505050565b81516001600160401b0381111562000239576200023962000178565b62000251816200024a84546200018e565b84620001ca565b602080601f831160018114620002895760008415620002705750858301515b600019600386901b1c1916600185901b17855562000214565b600085815260208120601f198616915b82811015620002ba5788860151825594840194600190910190840162000299565b5085821015620002d95787850151600019600388901b60f8161c191681555b5050505050600190811b01905550565b60805160a05160c05160e05161010051612d4f620003586000396000818161037c0152610ed60152600081816104150152610f050152600081816103420152610f5001526000818161049601528181610bf701526113cf01526000818161087c01526108be0152612d4f6000f3fe608060405234801561001057600080fd5b50600436106102275760003560e01c806380c95b1411610130578063b88d4fde116100b8578063d8a4676f1161007c578063d8a4676f146105e4578063daf565871461060e578063e985e9c514610621578063ec87621c1461065d578063fc2a88c31461068457600080fd5b8063b88d4fde1461054f578063b9ec499614610562578063c57413fe1461059e578063c87b56dd146105be578063d547741f146105d157600080fd5b806395d89b41116100ff57806395d89b41146104895780639b0db54914610491578063a168fa89146104b8578063a217fddf14610534578063a22cb4651461053c57600080fd5b806380c95b14146103ea5780638796ba8c146103fd5780638ac000211461041057806391d148541461045057600080fd5b80632f745c59116101b357806345bb327b1161018257806345bb327b1461037757806346af475f1461039e5780634f6ccce7146103b15780636352211e146103c457806370a08231146103d757600080fd5b80632f745c591461031757806336568abe1461032a5780633b2bcbf11461033d57806342842e0e1461036457600080fd5b806318160ddd116101fa57806318160ddd146102a95780631fe543e3146102bb57806323b872dd146102ce578063248a9ca3146102e15780632f2ff15d1461030457600080fd5b806301ffc9a71461022c57806306fdde0314610254578063081812fc14610269578063095ea7b314610294575b600080fd5b61023f61023a366004612636565b61068d565b60405190151581526020015b60405180910390f35b61025c61069e565b60405161024b91906126a3565b61027c6102773660046126b6565b610730565b6040516001600160a01b03909116815260200161024b565b6102a76102a23660046126eb565b610757565b005b6008545b60405190815260200161024b565b6102a76102c936600461275c565b610871565b6102a76102dc36600461280e565b6108f9565b6102ad6102ef3660046126b6565b6000908152600a602052604090206001015490565b6102a761031236600461284a565b61092a565b6102ad6103253660046126eb565b61094f565b6102a761033836600461284a565b6109e5565b61027c7f000000000000000000000000000000000000000000000000000000000000000081565b6102a761037236600461280e565b610a5f565b6102ad7f000000000000000000000000000000000000000000000000000000000000000081565b6102a76103ac366004612876565b610a7a565b6102ad6103bf3660046126b6565b610d4e565b61027c6103d23660046126b6565b610de1565b6102ad6103e5366004612876565b610e41565b6102ad6103f8366004612876565b610ec7565b6102ad61040b3660046126b6565b6110fe565b6104377f000000000000000000000000000000000000000000000000000000000000000081565b60405167ffffffffffffffff909116815260200161024b565b61023f61045e36600461284a565b6000918252600a602090815260408084206001600160a01b0393909316845291905290205460ff1690565b61025c61111f565b61027c7f000000000000000000000000000000000000000000000000000000000000000081565b6105016104c63660046126b6565b601060205260009081526040902080546001820154600283015460039093015460ff808416946101009094041692906001600160a01b031685565b60408051951515865293151560208601529284019190915260608301526001600160a01b0316608082015260a00161024b565b6102ad600081565b6102a761054a366004612891565b61112e565b6102a761055d366004612925565b611139565b6102ad6105703660046129a1565b600d602090815260009283526040909220815180830184018051928152908401929093019190912091525481565b6102ad6105ac3660046126b6565b60116020526000908152604090205481565b61025c6105cc3660046126b6565b611171565b6102a76105df36600461284a565b6111e5565b6105f76105f23660046126b6565b61120a565b60408051921515835260208301919091520161024b565b6102a761061c366004612876565b6112c8565b61023f61062f366004612a03565b6001600160a01b03918216600090815260056020908152604080832093909416825291909152205460ff1690565b6102ad7faf290d8680820aad922855f39b306097b20e28774d6c1ad35a20325630c3a02c81565b6102ad600f5481565b6000610698826114bb565b92915050565b6060600080546106ad90612a2d565b80601f01602080910402602001604051908101604052809291908181526020018280546106d990612a2d565b80156107265780601f106106fb57610100808354040283529160200191610726565b820191906000526020600020905b81548152906001019060200180831161070957829003601f168201915b5050505050905090565b600061073b826114e0565b506000908152600460205260409020546001600160a01b031690565b600061076282610de1565b9050806001600160a01b0316836001600160a01b0316036107d45760405162461bcd60e51b815260206004820152602160248201527f4552433732313a20617070726f76616c20746f2063757272656e74206f776e656044820152603960f91b60648201526084015b60405180910390fd5b336001600160a01b03821614806107f057506107f0813361062f565b6108625760405162461bcd60e51b815260206004820152603d60248201527f4552433732313a20617070726f76652063616c6c6572206973206e6f7420746f60448201527f6b656e206f776e6572206f7220617070726f76656420666f7220616c6c00000060648201526084016107cb565b61086c8383611542565b505050565b336001600160a01b037f000000000000000000000000000000000000000000000000000000000000000016146108eb5760405163073e64fd60e21b81523360048201526001600160a01b037f00000000000000000000000000000000000000000000000000000000000000001660248201526044016107cb565b6108f582826115b0565b5050565b61090333826116e8565b61091f5760405162461bcd60e51b81526004016107cb90612a67565b61086c838383611767565b6000828152600a6020526040902060010154610945816118d8565b61086c83836118e2565b600061095a83610e41565b82106109bc5760405162461bcd60e51b815260206004820152602b60248201527f455243373231456e756d657261626c653a206f776e657220696e646578206f7560448201526a74206f6620626f756e647360a81b60648201526084016107cb565b506001600160a01b03919091166000908152600660209081526040808320938352929052205490565b6001600160a01b0381163314610a555760405162461bcd60e51b815260206004820152602f60248201527f416363657373436f6e74726f6c3a2063616e206f6e6c792072656e6f756e636560448201526e103937b632b9903337b91039b2b63360891b60648201526084016107cb565b6108f58282611984565b61086c83838360405180602001604052806000815250611139565b6001600160a01b0381166000908152600d6020526040808220905167434f4e4e5f41564560c01b815260080190815260200160405180910390205411610af05760405162461bcd60e51b815260206004820152600b60248201526a4e4f5f434f4e4e5f41564560a81b60448201526064016107cb565b6001600160a01b0381166000908152600d60205260408082209051665645525f41564560c81b815260070190815260200160405180910390205411610b645760405162461bcd60e51b815260206004820152600a6024820152694e4f5f5645525f41564560b01b60448201526064016107cb565b6001600160a01b0381166000908152600d60205260408082209051664f52495f41564560c81b815260070190815260200160405180910390205411610bd85760405162461bcd60e51b815260206004820152600a6024820152694e4f5f4f52495f41564560b01b60448201526064016107cb565b604051636bcfbe3160e11b81526001600160a01b0382811660048301527f0000000000000000000000000000000000000000000000000000000000000000169063d79f7c6290602401600060405180830381600087803b158015610c3b57600080fd5b505af1158015610c4f573d6000803e3d6000fd5b505050506001600160a01b0381166000908152600d602052604090819020905167434f4e4e5f41564560c01b81526001919060080190815260200160405180910390206000828254610ca19190612aca565b90915550506001600160a01b0381166000908152600d6020526040908190209051665645525f41564560c81b81526001919060070190815260200160405180910390206000828254610cf39190612aca565b90915550506001600160a01b0381166000908152600d6020526040908190209051664f52495f41564560c81b8152600191906007015b90815260200160405180910390206000828254610d469190612aca565b909155505050565b6000610d5960085490565b8210610dbc5760405162461bcd60e51b815260206004820152602c60248201527f455243373231456e756d657261626c653a20676c6f62616c20696e646578206f60448201526b7574206f6620626f756e647360a01b60648201526084016107cb565b60088281548110610dcf57610dcf612add565b90600052602060002001549050919050565b6000818152600260205260408120546001600160a01b0316806106985760405162461bcd60e51b8152602060048201526018602482015277115490cdcc8c4e881a5b9d985b1a59081d1bdad95b88125160421b60448201526064016107cb565b60006001600160a01b038216610eab5760405162461bcd60e51b815260206004820152602960248201527f4552433732313a2061646472657373207a65726f206973206e6f7420612076616044820152683634b21037bbb732b960b91b60648201526084016107cb565b506001600160a01b031660009081526003602052604090205490565b6040516305d3b1d360e41b81527f0000000000000000000000000000000000000000000000000000000000000000600482015267ffffffffffffffff7f000000000000000000000000000000000000000000000000000000000000000016602482015260036044820152620186a060648201526001608482015260009081906001600160a01b037f00000000000000000000000000000000000000000000000000000000000000001690635d3b1d309060a4016020604051808303816000875af1158015610f99573d6000803e3d6000fd5b505050506040513d601f19601f82011682018060405250810190610fbd9190612af3565b90506000610fca600c5490565b9050610fd68482611a07565b6000818152601160209081526040808320859055805160a081018252838152600181840181815282840186815260608085018981526001600160a01b038d8116608088018181528d8c5260108b52898c2098518954975161ffff1990981690151561ff0019161761010097151597909702969096178855935187870155905160028701559251600390950180546001600160a01b0319169590931694909417909155600e8054808401825596527fbb7b4a454dc3493923482f07822329ed19e8244eff582cc204f8554c3620c3fd909501879055600f8790558251878152938401529082018490527f1b970ebafed35c9a56ac2fcb89255f1f7b67bd8b2f87f5f6fbed5dd90b47f845910160405180910390a26110f7600c80546001019055565b5092915050565b600e818154811061110e57600080fd5b600091825260209091200154905081565b6060600180546106ad90612a2d565b6108f5338383611ba0565b61114333836116e8565b61115f5760405162461bcd60e51b81526004016107cb90612a67565b61116b84848484611c6e565b50505050565b606061117c826114e0565b600061119360408051602081019091526000815290565b905060008151116111b357604051806020016040528060008152506111de565b806111bd84611ca1565b6040516020016111ce929190612b0c565b6040516020818303038152906040525b9392505050565b6000828152600a6020526040902060010154611200816118d8565b61086c8383611984565b6000818152601060205260408120548190610100900460ff166112635760405162461bcd60e51b8152602060048201526011602482015270149154555154d517d393d517d193d55391607a1b60448201526064016107cb565b5050600090815260106020908152604091829020825160a081018452815460ff8082161515808452610100909204161515938201939093526001820154938101849052600282015460608201526003909101546001600160a01b031660809091015291565b6001600160a01b0381166000908152600d60205260408082209051664d45445f41564560c81b81526007019081526020016040518091039020541161133c5760405162461bcd60e51b815260206004820152600a6024820152694e4f5f4d45445f41564560b01b60448201526064016107cb565b6001600160a01b0381166000908152600d602052604080822090516642414c5f41564560c81b8152600701908152602001604051809103902054116113b05760405162461bcd60e51b815260206004820152600a6024820152694e4f5f42414c5f41564560b01b60448201526064016107cb565b6040516305a7ffd760e01b81526001600160a01b0382811660048301527f000000000000000000000000000000000000000000000000000000000000000016906305a7ffd790602401600060405180830381600087803b15801561141357600080fd5b505af1158015611427573d6000803e3d6000fd5b505050506001600160a01b0381166000908152600d6020526040908190209051664d45445f41564560c81b815260019190600701908152602001604051809103902060008282546114789190612aca565b90915550506001600160a01b0381166000908152600d60205260409081902090516642414c5f41564560c81b815260019190600701610d29565b80546001019055565b60006001600160e01b03198216637965db0b60e01b1480610698575061069882611d34565b6000818152600260205260409020546001600160a01b031661153f5760405162461bcd60e51b8152602060048201526018602482015277115490cdcc8c4e881a5b9d985b1a59081d1bdad95b88125160421b60448201526064016107cb565b50565b600081815260046020526040902080546001600160a01b0319166001600160a01b038416908117909155819061157782610de1565b6001600160a01b03167f8c5be1e5ebec7d5bd14f71427d1e84f3dd0314c0f7b2291e5b200ac8c7c3b92560405160405180910390a45050565b600082815260106020526040902054610100900460ff166116075760405162461bcd60e51b8152602060048201526011602482015270149154555154d517d393d517d193d55391607a1b60448201526064016107cb565b6000828152601060205260408120805460ff191660019081179091558251600a908490849061163857611638612add565b602002602001015161164a9190612b3b565b6116549190612b5d565b6000848152601060205260409020600381015460019091018290559091506001600160a01b03166116858183611d59565b6000848152601060209081526040918290206002015482518781529182018590528183015290516001600160a01b038316917f56e0cc2d4dc57e3181be0d9b6c9331f3724de325e6ac9df948ea0ad5dd8e8f5c919081900360600190a250505050565b6000806116f483610de1565b9050806001600160a01b0316846001600160a01b0316148061173b57506001600160a01b0380821660009081526005602090815260408083209388168352929052205460ff165b8061175f5750836001600160a01b031661175484610730565b6001600160a01b0316145b949350505050565b826001600160a01b031661177a82610de1565b6001600160a01b0316146117a05760405162461bcd60e51b81526004016107cb90612b70565b6001600160a01b0382166118025760405162461bcd60e51b8152602060048201526024808201527f4552433732313a207472616e7366657220746f20746865207a65726f206164646044820152637265737360e01b60648201526084016107cb565b61180f8383836001611f08565b826001600160a01b031661182282610de1565b6001600160a01b0316146118485760405162461bcd60e51b81526004016107cb90612b70565b600081815260046020908152604080832080546001600160a01b03199081169091556001600160a01b0387811680865260038552838620805460001901905590871680865283862080546001019055868652600290945282852080549092168417909155905184937fddf252ad1be2c89b69c2b068fc378daa952ba7f163c4a11628f55a4df523b3ef91a4505050565b61153f8133612044565b6000828152600a602090815260408083206001600160a01b038516845290915290205460ff166108f5576000828152600a602090815260408083206001600160a01b03851684529091529020805460ff191660011790556119403390565b6001600160a01b0316816001600160a01b0316837f2f8788117e7eff1d82e926ec794901d17c78024a50270940304540a733656f0d60405160405180910390a45050565b6000828152600a602090815260408083206001600160a01b038516845290915290205460ff16156108f5576000828152600a602090815260408083206001600160a01b0385168085529252808320805460ff1916905551339285917ff6391f5c32d9c69d2a47ea670b442974b53935d1edc7fd64eb21e047a839171b9190a45050565b6001600160a01b038216611a5d5760405162461bcd60e51b815260206004820181905260248201527f4552433732313a206d696e7420746f20746865207a65726f206164647265737360448201526064016107cb565b6000818152600260205260409020546001600160a01b031615611ac25760405162461bcd60e51b815260206004820152601c60248201527f4552433732313a20746f6b656e20616c7265616479206d696e7465640000000060448201526064016107cb565b611ad0600083836001611f08565b6000818152600260205260409020546001600160a01b031615611b355760405162461bcd60e51b815260206004820152601c60248201527f4552433732313a20746f6b656e20616c7265616479206d696e7465640000000060448201526064016107cb565b6001600160a01b038216600081815260036020908152604080832080546001019055848352600290915280822080546001600160a01b0319168417905551839291907fddf252ad1be2c89b69c2b068fc378daa952ba7f163c4a11628f55a4df523b3ef908290a45050565b816001600160a01b0316836001600160a01b031603611c015760405162461bcd60e51b815260206004820152601960248201527f4552433732313a20617070726f766520746f2063616c6c65720000000000000060448201526064016107cb565b6001600160a01b03838116600081815260056020908152604080832094871680845294825291829020805460ff191686151590811790915591519182527f17307eab39ab6107e8899845ad3d59bd9653f200f220920489ca2b5937696c31910160405180910390a3505050565b611c79848484611767565b611c85848484846120b9565b61116b5760405162461bcd60e51b81526004016107cb90612bb5565b60606000611cae836121ba565b600101905060008167ffffffffffffffff811115611cce57611cce612715565b6040519080825280601f01601f191660200182016040528015611cf8576020820181803683370190505b5090508181016020015b600019016f181899199a1a9b1b9c1cb0b131b232b360811b600a86061a8153600a8504945084611d0257509392505050565b60006001600160e01b0319821663780e9d6360e01b1480610698575061069882612292565b60028111611dba576001600160a01b0382166000908152600d6020526040908190209051664d45445f41564560c81b8152600191906007015b90815260200160405180910390206000828254611daf9190612b5d565b909155506108f59050565b600281118015611dcb575060038111155b15611e05576001600160a01b0382166000908152600d60205260409081902090516642414c5f41564560c81b815260019190600701611d92565b600381118015611e16575060058111155b15611e51576001600160a01b0382166000908152600d602052604090819020905167434f4e4e5f41564560c01b815260019190600801611d92565b600581118015611e62575060078111155b15611e9c576001600160a01b0382166000908152600d6020526040908190209051665645525f41564560c81b815260019190600701611d92565b600781118015611ead5750600a8111155b156108f5576001600160a01b0382166000908152600d6020526040908190209051664f52495f41564560c81b81526001919060070190815260200160405180910390206000828254611eff9190612b5d565b90915550505050565b6001811115611f7f5760405162461bcd60e51b815260206004820152603560248201527f455243373231456e756d657261626c653a20636f6e736563757469766520747260448201527f616e7366657273206e6f7420737570706f72746564000000000000000000000060648201526084016107cb565b816001600160a01b038516611fdb57611fd681600880546000838152600960205260408120829055600182018355919091527ff3f7a9fe364faab93b216da50a3214154f22a0a2b415b23a84c8169e8b636ee30155565b611ffe565b836001600160a01b0316856001600160a01b031614611ffe57611ffe85826122e2565b6001600160a01b03841661201a576120158161237f565b61203d565b846001600160a01b0316846001600160a01b03161461203d5761203d848261242e565b5050505050565b6000828152600a602090815260408083206001600160a01b038516845290915290205460ff166108f55761207781612472565b612082836020612484565b604051602001612093929190612c07565b60408051601f198184030181529082905262461bcd60e51b82526107cb916004016126a3565b60006001600160a01b0384163b156121af57604051630a85bd0160e11b81526001600160a01b0385169063150b7a02906120fd903390899088908890600401612c7c565b6020604051808303816000875af1925050508015612138575060408051601f3d908101601f1916820190925261213591810190612cb8565b60015b612195573d808015612166576040519150601f19603f3d011682016040523d82523d6000602084013e61216b565b606091505b50805160000361218d5760405162461bcd60e51b81526004016107cb90612bb5565b805181602001fd5b6001600160e01b031916630a85bd0160e11b14905061175f565b506001949350505050565b60008072184f03e93ff9f4daa797ed6e38ed64bf6a1f0160401b83106121f95772184f03e93ff9f4daa797ed6e38ed64bf6a1f0160401b830492506040015b6d04ee2d6d415b85acef81000000008310612225576d04ee2d6d415b85acef8100000000830492506020015b662386f26fc10000831061224357662386f26fc10000830492506010015b6305f5e100831061225b576305f5e100830492506008015b612710831061226f57612710830492506004015b60648310612281576064830492506002015b600a83106106985760010192915050565b60006001600160e01b031982166380ac58cd60e01b14806122c357506001600160e01b03198216635b5e139f60e01b145b8061069857506301ffc9a760e01b6001600160e01b0319831614610698565b600060016122ef84610e41565b6122f99190612aca565b60008381526007602052604090205490915080821461234c576001600160a01b03841660009081526006602090815260408083208584528252808320548484528184208190558352600790915290208190555b5060009182526007602090815260408084208490556001600160a01b039094168352600681528383209183525290812055565b60085460009061239190600190612aca565b600083815260096020526040812054600880549394509092849081106123b9576123b9612add565b9060005260206000200154905080600883815481106123da576123da612add565b600091825260208083209091019290925582815260099091526040808220849055858252812055600880548061241257612412612cd5565b6001900381819060005260206000200160009055905550505050565b600061243983610e41565b6001600160a01b039093166000908152600660209081526040808320868452825280832085905593825260079052919091209190915550565b60606106986001600160a01b03831660145b60606000612493836002612ceb565b61249e906002612b5d565b67ffffffffffffffff8111156124b6576124b6612715565b6040519080825280601f01601f1916602001820160405280156124e0576020820181803683370190505b509050600360fc1b816000815181106124fb576124fb612add565b60200101906001600160f81b031916908160001a905350600f60fb1b8160018151811061252a5761252a612add565b60200101906001600160f81b031916908160001a905350600061254e846002612ceb565b612559906001612b5d565b90505b60018111156125d1576f181899199a1a9b1b9c1cb0b131b232b360811b85600f166010811061258d5761258d612add565b1a60f81b8282815181106125a3576125a3612add565b60200101906001600160f81b031916908160001a90535060049490941c936125ca81612d02565b905061255c565b5083156111de5760405162461bcd60e51b815260206004820181905260248201527f537472696e67733a20686578206c656e67746820696e73756666696369656e7460448201526064016107cb565b6001600160e01b03198116811461153f57600080fd5b60006020828403121561264857600080fd5b81356111de81612620565b60005b8381101561266e578181015183820152602001612656565b50506000910152565b6000815180845261268f816020860160208601612653565b601f01601f19169290920160200192915050565b6020815260006111de6020830184612677565b6000602082840312156126c857600080fd5b5035919050565b80356001600160a01b03811681146126e657600080fd5b919050565b600080604083850312156126fe57600080fd5b612707836126cf565b946020939093013593505050565b634e487b7160e01b600052604160045260246000fd5b604051601f8201601f1916810167ffffffffffffffff8111828210171561275457612754612715565b604052919050565b6000806040838503121561276f57600080fd5b8235915060208084013567ffffffffffffffff8082111561278f57600080fd5b818601915086601f8301126127a357600080fd5b8135818111156127b5576127b5612715565b8060051b91506127c684830161272b565b81815291830184019184810190898411156127e057600080fd5b938501935b838510156127fe578435825293850193908501906127e5565b8096505050505050509250929050565b60008060006060848603121561282357600080fd5b61282c846126cf565b925061283a602085016126cf565b9150604084013590509250925092565b6000806040838503121561285d57600080fd5b8235915061286d602084016126cf565b90509250929050565b60006020828403121561288857600080fd5b6111de826126cf565b600080604083850312156128a457600080fd5b6128ad836126cf565b9150602083013580151581146128c257600080fd5b809150509250929050565b600067ffffffffffffffff8311156128e7576128e7612715565b6128fa601f8401601f191660200161272b565b905082815283838301111561290e57600080fd5b828260208301376000602084830101529392505050565b6000806000806080858703121561293b57600080fd5b612944856126cf565b9350612952602086016126cf565b925060408501359150606085013567ffffffffffffffff81111561297557600080fd5b8501601f8101871361298657600080fd5b612995878235602084016128cd565b91505092959194509250565b600080604083850312156129b457600080fd5b6129bd836126cf565b9150602083013567ffffffffffffffff8111156129d957600080fd5b8301601f810185136129ea57600080fd5b6129f9858235602084016128cd565b9150509250929050565b60008060408385031215612a1657600080fd5b612a1f836126cf565b915061286d602084016126cf565b600181811c90821680612a4157607f821691505b602082108103612a6157634e487b7160e01b600052602260045260246000fd5b50919050565b6020808252602d908201527f4552433732313a2063616c6c6572206973206e6f7420746f6b656e206f776e6560408201526c1c881bdc88185c1c1c9bdd9959609a1b606082015260800190565b634e487b7160e01b600052601160045260246000fd5b8181038181111561069857610698612ab4565b634e487b7160e01b600052603260045260246000fd5b600060208284031215612b0557600080fd5b5051919050565b60008351612b1e818460208801612653565b835190830190612b32818360208801612653565b01949350505050565b600082612b5857634e487b7160e01b600052601260045260246000fd5b500690565b8082018082111561069857610698612ab4565b60208082526025908201527f4552433732313a207472616e736665722066726f6d20696e636f72726563742060408201526437bbb732b960d91b606082015260800190565b60208082526032908201527f4552433732313a207472616e7366657220746f206e6f6e20455243373231526560408201527131b2b4bb32b91034b6b83632b6b2b73a32b960711b606082015260800190565b7f416363657373436f6e74726f6c3a206163636f756e7420000000000000000000815260008351612c3f816017850160208801612653565b7001034b99036b4b9b9b4b733903937b6329607d1b6017918401918201528351612c70816028840160208801612653565b01602801949350505050565b60006001600160a01b03808716835280861660208401525083604083015260806060830152612cae6080830184612677565b9695505050505050565b600060208284031215612cca57600080fd5b81516111de81612620565b634e487b7160e01b600052603160045260246000fd5b808202811582820484141761069857610698612ab4565b600081612d1157612d11612ab4565b50600019019056fea2646970667358221220339ffdf4afd70894b7927a92d884415458b166185561cec01c896326d27cca5564736f6c63430008120033",
  "linkReferences": {},
  "deployedLinkReferences": {}
}