{
  "_format": "hh-sol-artifact-1",
  "contractName": "Monopoly",
  "sourceName": "contracts/Monopoly.sol",
  "abi": [
    {
      "inputs": [
        {
          "internalType": "uint64",
          "name": "subscriptionId",
          "type": "uint64"
        },
        {
          "internalType": "address",
          "name": "vrfCoordinator",
          "type": "address"
        },
        {
          "internalType": "bytes32",
          "name": "keyHash",
          "type": "bytes32"
        }
      ],
      "stateMutability": "nonpayable",
      "type": "constructor"
    },
    {
      "inputs": [
        {
          "internalType": "address",
          "name": "have",
          "type": "address"
        },
        {
          "internalType": "address",
          "name": "want",
          "type": "address"
        }
      ],
      "name": "OnlyCoordinatorCanFulfill",
      "type": "error"
    },
    {
      "anonymous": false,
      "inputs": [
        {
          "indexed": false,
          "internalType": "uint256",
          "name": "requestId",
          "type": "uint256"
        },
        {
          "indexed": false,
          "internalType": "uint256",
          "name": "randomWord",
          "type": "uint256"
        }
      ],
      "name": "RequestFulfilled",
      "type": "event"
    },
    {
      "anonymous": false,
      "inputs": [
        {
          "indexed": false,
          "internalType": "uint256",
          "name": "requestId",
          "type": "uint256"
        },
        {
          "indexed": false,
          "internalType": "uint32",
          "name": "numWords",
          "type": "uint32"
        }
      ],
      "name": "RequestSent",
      "type": "event"
    },
    {
      "anonymous": false,
      "inputs": [
        {
          "indexed": true,
          "internalType": "bytes32",
          "name": "role",
          "type": "bytes32"
        },
        {
          "indexed": true,
          "internalType": "bytes32",
          "name": "previousAdminRole",
          "type": "bytes32"
        },
        {
          "indexed": true,
          "internalType": "bytes32",
          "name": "newAdminRole",
          "type": "bytes32"
        }
      ],
      "name": "RoleAdminChanged",
      "type": "event"
    },
    {
      "anonymous": false,
      "inputs": [
        {
          "indexed": true,
          "internalType": "bytes32",
          "name": "role",
          "type": "bytes32"
        },
        {
          "indexed": true,
          "internalType": "address",
          "name": "account",
          "type": "address"
        },
        {
          "indexed": true,
          "internalType": "address",
          "name": "sender",
          "type": "address"
        }
      ],
      "name": "RoleGranted",
      "type": "event"
    },
    {
      "anonymous": false,
      "inputs": [
        {
          "indexed": true,
          "internalType": "bytes32",
          "name": "role",
          "type": "bytes32"
        },
        {
          "indexed": true,
          "internalType": "address",
          "name": "account",
          "type": "address"
        },
        {
          "indexed": true,
          "internalType": "address",
          "name": "sender",
          "type": "address"
        }
      ],
      "name": "RoleRevoked",
      "type": "event"
    },
    {
      "inputs": [],
      "name": "DEFAULT_ADMIN_ROLE",
      "outputs": [
        {
          "internalType": "bytes32",
          "name": "",
          "type": "bytes32"
        }
      ],
      "stateMutability": "view",
      "type": "function"
    },
    {
      "inputs": [],
      "name": "MANAGER_ROLE",
      "outputs": [
        {
          "internalType": "bytes32",
          "name": "",
          "type": "bytes32"
        }
      ],
      "stateMutability": "view",
      "type": "function"
    },
    {
      "inputs": [
        {
          "internalType": "uint256",
          "name": "_requestId",
          "type": "uint256"
        }
      ],
      "name": "getRequestStatus",
      "outputs": [
        {
          "internalType": "bool",
          "name": "fulfilled",
          "type": "bool"
        },
        {
          "internalType": "uint256",
          "name": "randomWord",
          "type": "uint256"
        }
      ],
      "stateMutability": "view",
      "type": "function"
    },
    {
      "inputs": [
        {
          "internalType": "bytes32",
          "name": "role",
          "type": "bytes32"
        }
      ],
      "name": "getRoleAdmin",
      "outputs": [
        {
          "internalType": "bytes32",
          "name": "",
          "type": "bytes32"
        }
      ],
      "stateMutability": "view",
      "type": "function"
    },
    {
      "inputs": [
        {
          "internalType": "bytes32",
          "name": "role",
          "type": "bytes32"
        },
        {
          "internalType": "address",
          "name": "account",
          "type": "address"
        }
      ],
      "name": "grantRole",
      "outputs": [],
      "stateMutability": "nonpayable",
      "type": "function"
    },
    {
      "inputs": [
        {
          "internalType": "bytes32",
          "name": "role",
          "type": "bytes32"
        },
        {
          "internalType": "address",
          "name": "account",
          "type": "address"
        }
      ],
      "name": "hasRole",
      "outputs": [
        {
          "internalType": "bool",
          "name": "",
          "type": "bool"
        }
      ],
      "stateMutability": "view",
      "type": "function"
    },
    {
      "inputs": [],
      "name": "lastRequestId",
      "outputs": [
        {
          "internalType": "uint256",
          "name": "",
          "type": "uint256"
        }
      ],
      "stateMutability": "view",
      "type": "function"
    },
    {
      "inputs": [
        {
          "internalType": "uint256",
          "name": "requestId",
          "type": "uint256"
        },
        {
          "internalType": "uint256[]",
          "name": "randomWords",
          "type": "uint256[]"
        }
      ],
      "name": "rawFulfillRandomWords",
      "outputs": [],
      "stateMutability": "nonpayable",
      "type": "function"
    },
    {
      "inputs": [
        {
          "internalType": "bytes32",
          "name": "role",
          "type": "bytes32"
        },
        {
          "internalType": "address",
          "name": "account",
          "type": "address"
        }
      ],
      "name": "renounceRole",
      "outputs": [],
      "stateMutability": "nonpayable",
      "type": "function"
    },
    {
      "inputs": [
        {
          "internalType": "uint256",
          "name": "",
          "type": "uint256"
        }
      ],
      "name": "requestIds",
      "outputs": [
        {
          "internalType": "uint256",
          "name": "",
          "type": "uint256"
        }
      ],
      "stateMutability": "view",
      "type": "function"
    },
    {
      "inputs": [],
      "name": "requestRandomWords",
      "outputs": [
        {
          "internalType": "uint256",
          "name": "",
          "type": "uint256"
        }
      ],
      "stateMutability": "nonpayable",
      "type": "function"
    },
    {
      "inputs": [
        {
          "internalType": "bytes32",
          "name": "role",
          "type": "bytes32"
        },
        {
          "internalType": "address",
          "name": "account",
          "type": "address"
        }
      ],
      "name": "revokeRole",
      "outputs": [],
      "stateMutability": "nonpayable",
      "type": "function"
    },
    {
      "inputs": [
        {
          "internalType": "uint256",
          "name": "",
          "type": "uint256"
        }
      ],
      "name": "s_requests",
      "outputs": [
        {
          "internalType": "bool",
          "name": "fulfilled",
          "type": "bool"
        },
        {
          "internalType": "bool",
          "name": "exists",
          "type": "bool"
        },
        {
          "internalType": "uint256",
          "name": "randomWord",
          "type": "uint256"
        }
      ],
      "stateMutability": "view",
      "type": "function"
    },
    {
      "inputs": [
        {
          "internalType": "bytes4",
          "name": "interfaceId",
          "type": "bytes4"
        }
      ],
      "name": "supportsInterface",
      "outputs": [
        {
          "internalType": "bool",
          "name": "",
          "type": "bool"
        }
      ],
      "stateMutability": "view",
      "type": "function"
    }
  ],
  "bytecode": "0x61010060405234801561001157600080fd5b50604051610ef1380380610ef18339810160408190526100309161005b565b600180556001600160a01b03909116608081905260a05260e0526001600160401b031660c0526100b6565b60008060006060848603121561007057600080fd5b83516001600160401b038116811461008757600080fd5b60208501519093506001600160a01b03811681146100a457600080fd5b80925050604084015190509250925092565b60805160a05160c05160e051610dfb6100f660003960006104f701526000610526015260006105710152600081816102dd015261031f0152610dfb6000f3fe608060405234801561001057600080fd5b50600436106100ea5760003560e01c8063a168fa891161008c578063d8a4676f11610066578063d8a4676f14610239578063e0c8628914610263578063ec87621c1461026b578063fc2a88c31461029257600080fd5b8063a168fa89146101cd578063a217fddf1461021e578063d547741f1461022657600080fd5b80632f2ff15d116100c85780632f2ff15d1461015d57806336568abe146101705780638796ba8c1461018357806391d148541461019657600080fd5b806301ffc9a7146100ef5780631fe543e314610117578063248a9ca31461012c575b600080fd5b6101026100fd366004610af2565b61029b565b60405190151581526020015b60405180910390f35b61012a610125366004610b32565b6102d2565b005b61014f61013a366004610bfc565b60009081526020819052604090206001015490565b60405190815260200161010e565b61012a61016b366004610c15565b61035f565b61012a61017e366004610c15565b610389565b61014f610191366004610bfc565b610403565b6101026101a4366004610c15565b6000918252602082815260408084206001600160a01b0393909316845291905290205460ff1690565b6102016101db366004610bfc565b6004602052600090815260409020805460019091015460ff808316926101009004169083565b60408051931515845291151560208401529082015260600161010e565b61014f600081565b61012a610234366004610c15565b610424565b61024c610247366004610bfc565b610449565b60408051921515835260208301919091520161010e565b61014f6104e8565b61014f7faf290d8680820aad922855f39b306097b20e28774d6c1ad35a20325630c3a02c81565b61014f60035481565b60006001600160e01b03198216637965db0b60e01b14806102cc57506301ffc9a760e01b6001600160e01b03198316145b92915050565b336001600160a01b037f000000000000000000000000000000000000000000000000000000000000000016146103515760405163073e64fd60e21b81523360048201526001600160a01b037f00000000000000000000000000000000000000000000000000000000000000001660248201526044015b60405180910390fd5b61035b82826106a8565b5050565b60008281526020819052604090206001015461037a816107a0565b61038483836107ad565b505050565b6001600160a01b03811633146103f95760405162461bcd60e51b815260206004820152602f60248201527f416363657373436f6e74726f6c3a2063616e206f6e6c792072656e6f756e636560448201526e103937b632b9903337b91039b2b63360891b6064820152608401610348565b61035b828261084b565b6002818154811061041357600080fd5b600091825260209091200154905081565b60008281526020819052604090206001015461043f816107a0565b610384838361084b565b6000818152600460205260408120548190610100900460ff166104a25760405162461bcd60e51b8152602060048201526011602482015270149154555154d517d393d517d193d55391607a1b6044820152606401610348565b50506000908152600460209081526040918290208251606081018452815460ff808216151580845261010090920416151593820193909352600190910154920182905291565b6040516305d3b1d360e41b81527f0000000000000000000000000000000000000000000000000000000000000000600482015267ffffffffffffffff7f000000000000000000000000000000000000000000000000000000000000000016602482015260036044820152620186a060648201526001608482015260009081906001600160a01b037f00000000000000000000000000000000000000000000000000000000000000001690635d3b1d309060a4016020604051808303816000875af11580156105ba573d6000803e3d6000fd5b505050506040513d601f19601f820116820180604052508101906105de9190610c51565b604080516060810182526000808252600160208084018281528486018481528785526004835286852095518654925161ffff1990931690151561ff0019161761010092151592909202919091178555519382019390935560028054808301825592527f405787fa12a823e0f2b7631cc41b3ba8828b3321ca811111fa75cd3aa3bb5ace90910184905560038490558251848152918201529192507fcc58b13ad3eab50626c6a6300b1d139cd6ebb1688a7cced9461c2f7e762665ee910160405180910390a1919050565b600082815260046020526040902054610100900460ff166106ff5760405162461bcd60e51b8152602060048201526011602482015270149154555154d517d393d517d193d55391607a1b6044820152606401610348565b6000828152600460205260408120805460ff1916600117905581516064908390839061072d5761072d610c6a565b602002602001015161073f9190610c80565b61074a906001610cb8565b60008481526004602090815260409182902060010183905581518681529081018390529192507f5c69e7026b653d8606b5613bb00fd8c4b0504b1cbe8db600c406faac180924d5910160405180910390a1505050565b6107aa81336108ca565b50565b6000828152602081815260408083206001600160a01b038516845290915290205460ff1661035b576000828152602081815260408083206001600160a01b03851684529091529020805460ff191660011790556108073390565b6001600160a01b0316816001600160a01b0316837f2f8788117e7eff1d82e926ec794901d17c78024a50270940304540a733656f0d60405160405180910390a45050565b6000828152602081815260408083206001600160a01b038516845290915290205460ff161561035b576000828152602081815260408083206001600160a01b0385168085529252808320805460ff1916905551339285917ff6391f5c32d9c69d2a47ea670b442974b53935d1edc7fd64eb21e047a839171b9190a45050565b6000828152602081815260408083206001600160a01b038516845290915290205460ff1661035b576108fb8161093d565b61090683602061094f565b604051602001610917929190610cef565b60408051601f198184030181529082905262461bcd60e51b825261034891600401610d64565b60606102cc6001600160a01b03831660145b6060600061095e836002610d97565b610969906002610cb8565b67ffffffffffffffff81111561098157610981610b1c565b6040519080825280601f01601f1916602001820160405280156109ab576020820181803683370190505b509050600360fc1b816000815181106109c6576109c6610c6a565b60200101906001600160f81b031916908160001a905350600f60fb1b816001815181106109f5576109f5610c6a565b60200101906001600160f81b031916908160001a9053506000610a19846002610d97565b610a24906001610cb8565b90505b6001811115610a9c576f181899199a1a9b1b9c1cb0b131b232b360811b85600f1660108110610a5857610a58610c6a565b1a60f81b828281518110610a6e57610a6e610c6a565b60200101906001600160f81b031916908160001a90535060049490941c93610a9581610dae565b9050610a27565b508315610aeb5760405162461bcd60e51b815260206004820181905260248201527f537472696e67733a20686578206c656e67746820696e73756666696369656e746044820152606401610348565b9392505050565b600060208284031215610b0457600080fd5b81356001600160e01b031981168114610aeb57600080fd5b634e487b7160e01b600052604160045260246000fd5b60008060408385031215610b4557600080fd5b8235915060208084013567ffffffffffffffff80821115610b6557600080fd5b818601915086601f830112610b7957600080fd5b813581811115610b8b57610b8b610b1c565b8060051b604051601f19603f83011681018181108582111715610bb057610bb0610b1c565b604052918252848201925083810185019189831115610bce57600080fd5b938501935b82851015610bec57843584529385019392850192610bd3565b8096505050505050509250929050565b600060208284031215610c0e57600080fd5b5035919050565b60008060408385031215610c2857600080fd5b8235915060208301356001600160a01b0381168114610c4657600080fd5b809150509250929050565b600060208284031215610c6357600080fd5b5051919050565b634e487b7160e01b600052603260045260246000fd5b600082610c9d57634e487b7160e01b600052601260045260246000fd5b500690565b634e487b7160e01b600052601160045260246000fd5b808201808211156102cc576102cc610ca2565b60005b83811015610ce6578181015183820152602001610cce565b50506000910152565b7f416363657373436f6e74726f6c3a206163636f756e7420000000000000000000815260008351610d27816017850160208801610ccb565b7001034b99036b4b9b9b4b733903937b6329607d1b6017918401918201528351610d58816028840160208801610ccb565b01602801949350505050565b6020815260008251806020840152610d83816040850160208701610ccb565b601f01601f19169190910160400192915050565b80820281158282048414176102cc576102cc610ca2565b600081610dbd57610dbd610ca2565b50600019019056fea26469706673582212206a74b9f24ae93aa994b07c82eaff651be1da96038483a771d61b60d9e394776264736f6c63430008120033",
  "linkReferences": {},
  "deployedLinkReferences": {}
}